{
  "contractName": "Wallet",
  "abi": [
    {
      "inputs": [
        {
          "internalType": "address[]",
          "name": "_approvers",
          "type": "address[]"
        },
        {
          "internalType": "uint256",
          "name": "_quorum",
          "type": "uint256"
        }
      ],
      "stateMutability": "nonpayable",
      "type": "constructor"
    },
    {
      "inputs": [
        {
          "internalType": "address",
          "name": "",
          "type": "address"
        },
        {
          "internalType": "uint256",
          "name": "",
          "type": "uint256"
        }
      ],
      "name": "approvals",
      "outputs": [
        {
          "internalType": "bool",
          "name": "",
          "type": "bool"
        }
      ],
      "stateMutability": "view",
      "type": "function",
      "constant": true
    },
    {
      "inputs": [
        {
          "internalType": "uint256",
          "name": "",
          "type": "uint256"
        }
      ],
      "name": "approver",
      "outputs": [
        {
          "internalType": "uint256",
          "name": "id",
          "type": "uint256"
        },
        {
          "internalType": "address",
          "name": "approver",
          "type": "address"
        }
      ],
      "stateMutability": "view",
      "type": "function",
      "constant": true
    },
    {
      "inputs": [
        {
          "internalType": "uint256",
          "name": "",
          "type": "uint256"
        }
      ],
      "name": "approvers",
      "outputs": [
        {
          "internalType": "address",
          "name": "",
          "type": "address"
        }
      ],
      "stateMutability": "view",
      "type": "function",
      "constant": true
    },
    {
      "inputs": [],
      "name": "quorum",
      "outputs": [
        {
          "internalType": "uint256",
          "name": "",
          "type": "uint256"
        }
      ],
      "stateMutability": "view",
      "type": "function",
      "constant": true
    },
    {
      "inputs": [
        {
          "internalType": "uint256",
          "name": "",
          "type": "uint256"
        }
      ],
      "name": "transfers",
      "outputs": [
        {
          "internalType": "uint256",
          "name": "id",
          "type": "uint256"
        },
        {
          "internalType": "uint256",
          "name": "amount",
          "type": "uint256"
        },
        {
          "internalType": "address",
          "name": "from",
          "type": "address"
        },
        {
          "internalType": "address payable",
          "name": "to",
          "type": "address"
        },
        {
          "internalType": "uint256",
          "name": "approvals",
          "type": "uint256"
        },
        {
          "internalType": "bool",
          "name": "sent",
          "type": "bool"
        }
      ],
      "stateMutability": "view",
      "type": "function",
      "constant": true
    },
    {
      "stateMutability": "payable",
      "type": "receive",
      "payable": true
    },
    {
      "inputs": [],
      "name": "getApprovers",
      "outputs": [
        {
          "internalType": "address[]",
          "name": "",
          "type": "address[]"
        }
      ],
      "stateMutability": "view",
      "type": "function",
      "constant": true
    },
    {
      "inputs": [],
      "name": "getTransfers",
      "outputs": [
        {
          "components": [
            {
              "internalType": "uint256",
              "name": "id",
              "type": "uint256"
            },
            {
              "internalType": "uint256",
              "name": "amount",
              "type": "uint256"
            },
            {
              "internalType": "address",
              "name": "from",
              "type": "address"
            },
            {
              "internalType": "address payable",
              "name": "to",
              "type": "address"
            },
            {
              "internalType": "uint256",
              "name": "approvals",
              "type": "uint256"
            },
            {
              "internalType": "bool",
              "name": "sent",
              "type": "bool"
            }
          ],
          "internalType": "struct Wallet.Transfer[]",
          "name": "",
          "type": "tuple[]"
        }
      ],
      "stateMutability": "view",
      "type": "function",
      "constant": true
    },
    {
      "inputs": [
        {
          "internalType": "uint256",
          "name": "amount",
          "type": "uint256"
        },
        {
          "internalType": "address payable",
          "name": "to",
          "type": "address"
        }
      ],
      "name": "createTransfer",
      "outputs": [],
      "stateMutability": "nonpayable",
      "type": "function"
    },
    {
      "inputs": [
        {
          "internalType": "uint256",
          "name": "id",
          "type": "uint256"
        }
      ],
      "name": "approveTransfer",
      "outputs": [],
      "stateMutability": "nonpayable",
      "type": "function"
    },
    {
      "inputs": [],
      "name": "ApproverList",
      "outputs": [
        {
          "components": [
            {
              "internalType": "uint256",
              "name": "id",
              "type": "uint256"
            },
            {
              "internalType": "address",
              "name": "approver",
              "type": "address"
            }
          ],
          "internalType": "struct Wallet.Approver[]",
          "name": "",
          "type": "tuple[]"
        }
      ],
      "stateMutability": "view",
      "type": "function",
      "constant": true
    }
  ],
  "bytecode": "0x60806040523480156200001157600080fd5b5060405162001781380380620017818339818101604052620000379190810190620001ef565b81600090805190602001906200004f9291906200005f565b5080600181905550505062000312565b828054828255906000526020600020908101928215620000db579160200282015b82811115620000da5782518260006101000a81548173ffffffffffffffffffffffffffffffffffffffff021916908373ffffffffffffffffffffffffffffffffffffffff1602179055509160200191906001019062000080565b5b509050620000ea9190620000ee565b5090565b6200013191905b808211156200012d57600081816101000a81549073ffffffffffffffffffffffffffffffffffffffff021916905550600101620000f5565b5090565b90565b6000815190506200014581620002de565b92915050565b600082601f8301126200015d57600080fd5b8151620001746200016e8262000277565b62000249565b915081818352602084019350602081019050838560208402820111156200019a57600080fd5b60005b83811015620001ce5781620001b3888262000134565b8452602084019350602083019250506001810190506200019d565b5050505092915050565b600081519050620001e981620002f8565b92915050565b600080604083850312156200020357600080fd5b600083015167ffffffffffffffff8111156200021e57600080fd5b6200022c858286016200014b565b92505060206200023f85828601620001d8565b9150509250929050565b6000604051905081810181811067ffffffffffffffff821117156200026d57600080fd5b8060405250919050565b600067ffffffffffffffff8211156200028f57600080fd5b602082029050602081019050919050565b6000620002ad82620002b4565b9050919050565b600073ffffffffffffffffffffffffffffffffffffffff82169050919050565b6000819050919050565b620002e981620002a0565b8114620002f557600080fd5b50565b6200030381620002d4565b81146200030f57600080fd5b50565b61145f80620003226000396000f3fe6080604052600436106100955760003560e01c80636cb3e8ef116100595780636cb3e8ef146101895780639377d711146101b4578063cacca4a0146101f6578063d3650fb81461021f578063ffabc6731461025c5761009c565b80631703a018146100a1578063223cbb42146100cc5780632373ce4e146100f75780632f65142c146101355780634c12fa47146101605761009c565b3661009c57005b600080fd5b3480156100ad57600080fd5b506100b6610299565b6040516100c39190611229565b60405180910390f35b3480156100d857600080fd5b506100e161029f565b6040516100ee919061116a565b60405180910390f35b34801561010357600080fd5b5061011e60048036036101199190810190610d84565b61035e565b60405161012c929190611244565b60405180910390f35b34801561014157600080fd5b5061014a6103af565b604051610157919061118c565b60405180910390f35b34801561016c57600080fd5b5061018760048036036101829190810190610dad565b6104f3565b005b34801561019557600080fd5b5061019e610730565b6040516101ab9190611148565b60405180910390f35b3480156101c057600080fd5b506101db60048036036101d69190810190610d84565b6107be565b6040516101ed9695949392919061126d565b60405180910390f35b34801561020257600080fd5b5061021d60048036036102189190810190610d84565b610854565b005b34801561022b57600080fd5b5061024660048036036102419190810190610d84565b610c9e565b604051610253919061112d565b60405180910390f35b34801561026857600080fd5b50610283600480360361027e9190810190610d48565b610cda565b60405161029091906111ae565b60405180910390f35b60015481565b60606002805480602002602001604051908101604052809291908181526020016000905b828210156103555783829060005260206000209060020201604051806040016040529081600082015481526020016001820160009054906101000a900473ffffffffffffffffffffffffffffffffffffffff1673ffffffffffffffffffffffffffffffffffffffff1673ffffffffffffffffffffffffffffffffffffffff1681525050815260200190600101906102c3565b50505050905090565b6002818154811061036b57fe5b90600052602060002090600202016000915090508060000154908060010160009054906101000a900473ffffffffffffffffffffffffffffffffffffffff16905082565b60606003805480602002602001604051908101604052809291908181526020016000905b828210156104ea57838290600052602060002090600602016040518060c001604052908160008201548152602001600182015481526020016002820160009054906101000a900473ffffffffffffffffffffffffffffffffffffffff1673ffffffffffffffffffffffffffffffffffffffff1673ffffffffffffffffffffffffffffffffffffffff1681526020016003820160009054906101000a900473ffffffffffffffffffffffffffffffffffffffff1673ffffffffffffffffffffffffffffffffffffffff1673ffffffffffffffffffffffffffffffffffffffff168152602001600482015481526020016005820160009054906101000a900460ff161515151581525050815260200190600101906103d3565b50505050905090565b600080905060008090505b600080549050811015610588573373ffffffffffffffffffffffffffffffffffffffff166000828154811061052f57fe5b9060005260206000200160009054906101000a900473ffffffffffffffffffffffffffffffffffffffff1673ffffffffffffffffffffffffffffffffffffffff16141561057b57600191505b80806001019150506104fe565b5060011515811515146105d0576040517f08c379a00000000000000000000000000000000000000000000000000000000081526004016105c7906111e9565b60405180910390fd5b60036040518060c0016040528060038054905081526020018581526020013373ffffffffffffffffffffffffffffffffffffffff1681526020018473ffffffffffffffffffffffffffffffffffffffff16815260200160008152602001600015158152509080600181540180825580915050600190039060005260206000209060060201600090919091909150600082015181600001556020820151816001015560408201518160020160006101000a81548173ffffffffffffffffffffffffffffffffffffffff021916908373ffffffffffffffffffffffffffffffffffffffff16021790555060608201518160030160006101000a81548173ffffffffffffffffffffffffffffffffffffffff021916908373ffffffffffffffffffffffffffffffffffffffff1602179055506080820151816004015560a08201518160050160006101000a81548160ff0219169083151502179055505050505050565b606060008054806020026020016040519081016040528092919081815260200182805480156107b457602002820191906000526020600020905b8160009054906101000a900473ffffffffffffffffffffffffffffffffffffffff1673ffffffffffffffffffffffffffffffffffffffff168152602001906001019080831161076a575b5050505050905090565b600381815481106107cb57fe5b90600052602060002090600602016000915090508060000154908060010154908060020160009054906101000a900473ffffffffffffffffffffffffffffffffffffffff16908060030160009054906101000a900473ffffffffffffffffffffffffffffffffffffffff16908060040154908060050160009054906101000a900460ff16905086565b600080905060008090505b6000805490508110156108e9573373ffffffffffffffffffffffffffffffffffffffff166000828154811061089057fe5b9060005260206000200160009054906101000a900473ffffffffffffffffffffffffffffffffffffffff1673ffffffffffffffffffffffffffffffffffffffff1614156108dc57600191505b808060010191505061085f565b506001151581151514610931576040517f08c379a0000000000000000000000000000000000000000000000000000000008152600401610928906111e9565b60405180910390fd5b600015156003838154811061094257fe5b906000526020600020906006020160050160009054906101000a900460ff161515146109a3576040517f08c379a000000000000000000000000000000000000000000000000000000000815260040161099a906111c9565b60405180910390fd5b60001515600460003373ffffffffffffffffffffffffffffffffffffffff1673ffffffffffffffffffffffffffffffffffffffff168152602001908152602001600020600084815260200190815260200160002060009054906101000a900460ff16151514610a47576040517f08c379a0000000000000000000000000000000000000000000000000000000008152600401610a3e90611209565b60405180910390fd5b6001600460003373ffffffffffffffffffffffffffffffffffffffff1673ffffffffffffffffffffffffffffffffffffffff168152602001908152602001600020600084815260200190815260200160002060006101000a81548160ff02191690831515021790555060038281548110610abd57fe5b9060005260206000209060060201600401600081548092919060010191905055506002604051806040016040528060028054905081526020013373ffffffffffffffffffffffffffffffffffffffff1681525090806001815401808255809150506001900390600052602060002090600202016000909190919091506000820151816000015560208201518160010160006101000a81548173ffffffffffffffffffffffffffffffffffffffff021916908373ffffffffffffffffffffffffffffffffffffffff160217905550505060015460038381548110610b9c57fe5b90600052602060002090600602016004015410610c9a57600160038381548110610bc257fe5b906000526020600020906006020160050160006101000a81548160ff021916908315150217905550600060038381548110610bf957fe5b906000526020600020906006020160030160009054906101000a900473ffffffffffffffffffffffffffffffffffffffff169050600060038481548110610c3c57fe5b90600052602060002090600602016001015490508173ffffffffffffffffffffffffffffffffffffffff166108fc829081150290604051600060405180830381858888f19350505050158015610c96573d6000803e3d6000fd5b5050505b5050565b60008181548110610cab57fe5b906000526020600020016000915054906101000a900473ffffffffffffffffffffffffffffffffffffffff1681565b60046020528160005260406000206020528060005260406000206000915091509054906101000a900460ff1681565b600081359050610d18816113e4565b92915050565b600081359050610d2d816113fb565b92915050565b600081359050610d4281611412565b92915050565b60008060408385031215610d5b57600080fd5b6000610d6985828601610d09565b9250506020610d7a85828601610d33565b9150509250929050565b600060208284031215610d9657600080fd5b6000610da484828501610d33565b91505092915050565b60008060408385031215610dc057600080fd5b6000610dce85828601610d33565b9250506020610ddf85828601610d1e565b9150509250929050565b6000610df58383610e4f565b60208301905092915050565b6000610e0d8383611065565b60408301905092915050565b6000610e258383611094565b60c08301905092915050565b610e3a8161139c565b82525050565b610e498161139c565b82525050565b610e588161138a565b82525050565b610e678161138a565b82525050565b6000610e78826112fe565b610e828185611346565b9350610e8d836112ce565b8060005b83811015610ebe578151610ea58882610de9565b9750610eb08361131f565b925050600181019050610e91565b5085935050505092915050565b6000610ed682611309565b610ee08185611357565b9350610eeb836112de565b8060005b83811015610f1c578151610f038882610e01565b9750610f0e8361132c565b925050600181019050610eef565b5085935050505092915050565b6000610f3482611314565b610f3e8185611368565b9350610f49836112ee565b8060005b83811015610f7a578151610f618882610e19565b9750610f6c83611339565b925050600181019050610f4d565b5085935050505092915050565b610f90816113ae565b82525050565b610f9f816113ae565b82525050565b6000610fb2601e83611379565b91507f7472616e736665722068617320616c7265616479206265656e2073656e7400006000830152602082019050919050565b6000610ff2601583611379565b91507f6f6e6c7920617070726f76657220616c6c6f77656400000000000000000000006000830152602082019050919050565b6000611032601d83611379565b91507f63616e6e6f7420617070726f7665207472616e736665722074776963650000006000830152602082019050919050565b60408201600082015161107b600085018261110f565b50602082015161108e6020850182610e4f565b50505050565b60c0820160008201516110aa600085018261110f565b5060208201516110bd602085018261110f565b5060408201516110d06040850182610e4f565b5060608201516110e36060850182610e31565b5060808201516110f6608085018261110f565b5060a082015161110960a0850182610f87565b50505050565b611118816113da565b82525050565b611127816113da565b82525050565b60006020820190506111426000830184610e5e565b92915050565b600060208201905081810360008301526111628184610e6d565b905092915050565b600060208201905081810360008301526111848184610ecb565b905092915050565b600060208201905081810360008301526111a68184610f29565b905092915050565b60006020820190506111c36000830184610f96565b92915050565b600060208201905081810360008301526111e281610fa5565b9050919050565b6000602082019050818103600083015261120281610fe5565b9050919050565b6000602082019050818103600083015261122281611025565b9050919050565b600060208201905061123e600083018461111e565b92915050565b6000604082019050611259600083018561111e565b6112666020830184610e5e565b9392505050565b600060c082019050611282600083018961111e565b61128f602083018861111e565b61129c6040830187610e5e565b6112a96060830186610e40565b6112b6608083018561111e565b6112c360a0830184610f96565b979650505050505050565b6000819050602082019050919050565b6000819050602082019050919050565b6000819050602082019050919050565b600081519050919050565b600081519050919050565b600081519050919050565b6000602082019050919050565b6000602082019050919050565b6000602082019050919050565b600082825260208201905092915050565b600082825260208201905092915050565b600082825260208201905092915050565b600082825260208201905092915050565b6000611395826113ba565b9050919050565b60006113a7826113ba565b9050919050565b60008115159050919050565b600073ffffffffffffffffffffffffffffffffffffffff82169050919050565b6000819050919050565b6113ed8161138a565b81146113f857600080fd5b50565b6114048161139c565b811461140f57600080fd5b50565b61141b816113da565b811461142657600080fd5b5056fea264697066735822122036d1a3323a042a48cab37340244dc270ff3a8e3755d0b2ca88017c9be8bd2d0164736f6c63430006000033",
  "source": "pragma solidity ^0.6.0;\r\npragma experimental ABIEncoderV2;\r\n\r\ncontract Wallet {\r\n    \r\n    modifier onlyApprover() {\r\n        bool allowed = false;\r\n        for(uint i = 0; i < approvers.length; i++) {\r\n            if(approvers[i] == msg.sender) {\r\n                allowed = true;\r\n            }\r\n        }\r\n        require(allowed == true, 'only approver allowed');\r\n        _;\r\n    }\r\n    \r\n    address[] public approvers;\r\n    uint public quorum;\r\n    \r\n    struct Transfer {\r\n        uint id;\r\n        uint amount;\r\n        address from;\r\n        address payable to;\r\n        uint approvals;\r\n        bool sent;\r\n    }\r\n\r\n    struct Approver {\r\n        uint id;\r\n        address approver;\r\n    }\r\n\r\n    Approver[] public approver;\r\n\r\n    Transfer[] public transfers;\r\n    mapping(address => mapping(uint => bool)) public approvals;\r\n    \r\n    \r\n    constructor(address[] memory _approvers, uint _quorum) public {\r\n        approvers = _approvers;\r\n        quorum = _quorum;\r\n    }\r\n    \r\n    function getApprovers() external view returns(address[] memory) {\r\n        return approvers;\r\n    }\r\n    \r\n    function getTransfers() external view returns(Transfer[] memory){\r\n        return transfers;\r\n    }\r\n    \r\n    function createTransfer(uint amount, address payable to) external onlyApprover() {\r\n        transfers.push(Transfer(transfers.length, amount, msg.sender, to, 0, false));\r\n     }\r\n     \r\n    function approveTransfer( uint id ) external onlyApprover() {\r\n        require(transfers[id].sent == false, 'transfer has already been sent');\r\n        require(approvals[msg.sender][id] == false, 'cannot approve transfer twice');\r\n        approvals[msg.sender][id] = true;\r\n        transfers[id].approvals++;\r\n\r\n        approver.push(Approver(approver.length, msg.sender));\r\n            \r\n        if(transfers[id].approvals >= quorum) {\r\n            transfers[id].sent=true;\r\n            address payable to = transfers[id].to;\r\n            uint amount = transfers[id].amount;\r\n            to.transfer(amount);\r\n        }\r\n    }\r\n\r\n    function ApproverList() external view returns(Approver[] memory) {\r\n        return approver;\r\n    }\r\n    \r\n    receive() external payable {  \r\n    }\r\n}",
  "sourcePath": "C:/Users/K-Rex/Desktop/Coding/EattheBlocks/wallet/contracts/Wallet.sol",
  "compiler": {
    "name": "solc",
    "version": "0.6.0+commit.26b70077.Emscripten.clang"
  },
  "schemaVersion": "3.2.5",
  "updatedAt": "2020-12-19T23:41:20.964Z",
  "networkType": "ethereum",
  "devdoc": {
    "methods": {}
  },
  "userdoc": {
    "methods": {}
  }
}